S0130000627574746F6E5F64656D6F2E7372656371
S11304009300000093010000130200009302000017
S1130410130300009303000013040000930400007E
S11304201305000093050000130600009306000066
S1130430130700009307000013080000930800004E
S11304401309000093090000130A0000930A000036
S1130450130B0000930B0000130C0000930C00001E
S1130460130D0000930D0000130E0000930E000006
S1130470130F0000930F0000370500029305A00A34
S11304802320B500EF0040166F000000130101FEA9
S1130490232E1100232C810013040102930705006D
S11304A0A307F4FE0347F4FE9307A0006316F700C6
S11304B01305D000EFF09FFDB70700029387870074
S11304C00347F4FE23A0E700130000008320C101CA
S11304D0032481011301010267800000130101FE5E
S11304E0232E1100232C8100130401022326A4FED1
S11304F06F00C0018327C4FE138717002326E4FE80
S113050083C7070013850700EFF05FF88327C4FE55
S113051083C70700E39007FE1300000013000000E8
S11305208320C101032481011301010267800000BB
S1130530130101FE232E1100232C81001304010258
S11305402326A4FE8327C4FE93F7F70F938707039C
S113055093F7F70F13850700EFF05FF31300000024
S11305608320C1010324810113010102678000007B
S1130570130101FE232E1100232C81001304010218
S1130580B70700029387070183A707002326F4FE19
S1130590232204FE6F000001832744FE9387170083
S11305A02322F4FE032744FE9307301FE3D6E7FE1D
S11305B0B70700029387070183A707002324F4FEEB
S11305C00327C4FE832784FEE31CF7FA8327C4FEB3
S11305D093F7F707138507008320C10103248101E2
S11305E01301010267800000130101FD232611029B
S11305F02324810213040103B707000293874700F1
S11306001307900D23A0E70013054074EFF01FEDCE
S11306101305C075EFF09FECEFF09FF52326A4FEC1
S1130620EFF01FF5232EA4FC0327C4FD8327C4FE8B
S1130630B347F700232CF4FC832784FDE38207FEF1
S1130640930710002324F4FE6F000007832784FE21
S1130650032784FDB357F70093F717006388070453
S1130660832784FE0327C4FDB357F70093F71700CD
S113067093F7170093C7170093F7F70F232AF4FC97
S11306801305C077EFF09FE5032584FEEFF05FEAE2
S1130690832744FD63860700930700786F0080007A
S11306A09307C07813850700EFF05FE3832784FE88
S11306B0938717002324F4FE032784FE9307600026
S11306C0E3D6E7F8A30304FE930710002320F4FE07
S11306D06F000005832704FE0327C4FDB357F7000A
S11306E093F7170063980702832704FE9387F7FFA5
S11306F013071000B317F7001397870113578741A7
S1130700830774FEB367F7009397870193D78741F4
S1130710A303F4FE832704FE938717002320F4FE2B
S1130720032704FE93076000E3D6E7FAB707000245
S1130730034774FE23A0E7008327C4FD2326F4FEA9
S10707406FF01FEE45
S11307440A3D3D3D20427574746F6E2044656D6F9F
S1130754203D3D3D0A000000EBB284ED8ABCEC9DD3
S11307648420EB888CEB9FACEBB3B4EC84B8EC9AA8
S113077494210A0A0000000042544E0020EB888CA5
S1110784EBA6BC0A0000000020EB978C0A00D4
S9030400F8
