S012000068656C6C6F776F726C642E73726563D6
S11304009300000093010000130200009302000017
S1130410130300009303000013040000930400007E
S11304201305000093050000130600009306000066
S1130430130700009307000013080000930800004E
S11304401309000093090000130A0000930A000036
S1130450130B0000930B0000130C0000930C00001E
S1130460130D0000930D0000130E0000930E000006
S1130470130F0000930F0000370500029305A00A34
S11304802320B500EF00800F6F000000130101FE70
S1130490232E1100232C810013040102930705006D
S11304A0A307F4FE0347F4FE9307A0006316F700C6
S11304B01305D000EFF09FFDB70700029387870074
S11304C00347F4FE23A0E700130000008320C101CA
S11304D0032481011301010267800000130101FE5E
S11304E0232E1100232C8100130401022326A4FED1
S11304F06F00C0018327C4FE138717002326E4FE80
S113050083C7070013850700EFF05FF88327C4FE55
S113051083C70700E39007FE1300000013000000E8
S11305208320C101032481011301010267800000BB
S1130530130101FE232E1100232C81001304010258
S1130540232604FE6F0000018327C4FE938717004F
S11305502326F4FE0327C4FEB7D703009387F708C6
S1130560E3D4E7FE13000000130000008320C10160
S1130570032481011301010267800000130101FFBC
S1130580232611002324810013040101B70700026C
S1130590938747001307900D23A0E7001305405DE0
S11305A0EFF0DFF31305405FEFF05FF3B7070002EE
S11305B01307F00F23A0E70013054061EFF01FF2CB
S11305C0EFF01FF7B707000223A00700EFF05FF674
S10705D06FF0DFFDE8
S11305D40A3D3D3D2048656C6C6F2066726F6D204A
S11305E45069636F5256333221203D3D3D0A000069
S11305F4554C583353202B2070726A7472656C6C9A
S113060469732D7069636F727633320A0A000000CD
S110061468656C6C6F20776F726C640A006F
S9030400F8
